S01D0000466C6F6F645F476174655F436F6E74726F6C6C65722E73726563B0
S11300000C94A7000C9425040C94C4000C94C40014
S11300100C94C4000C94C4000C94C4000C94C4004C
S11300200C94C4000C94C4000C94C4000C94C4003C
S11300300C94C4000C94C4000C94C4000C94C4002C
S11300400C94C4000C94C4000C94C4000C94C4001C
S11300500C94C40000407A10F35A00A0724E1809A0
S11300600010A5D4E80000E87648170000E40B541B
S1130070020000CA9A3B000000E1F50500008096EA
S11300809800000040420F000000A086010000001C
S1130090102700000000E8030000000064000000D6
S11300A000000A00000000000100000000002C769F
S11300B0D888DC674F0823DFC1DFAE59E1B1B796BA
S11300C0E5E3E453C63AE651997696E8E6C2842617
S11300D0EB898C9B62ED407C6FFCEFBC9C9F40F2F3
S11300E0BAA56FA5F490055A2AF75C936B6CF9676F
S11300F06DC11BFCE0E40D47FEF520E6B500D0ED34
S1130100902E0300943577050080841E080000209B
S11301104E0A000000C80C333333330F986E128339
S11301201141EF8D2114893BE65516CFFEE6DB180D
S1130130D1844B381BF77C1D901DA4BBE4242032D2
S113014084725E228100C9F124ECA1E53D271124CB
S11301501FBECFE5D8E0DEBFCDBF10E0A0E6B0E023
S1130160E0EAF2E102C005900D92AC39B107D9F78B
S113017020E0ACE9B0E001C01D92A43AB207E1F777
S11301800E9455040C944E090C940000672B09F04E
S11301909FC0009711F4D89808958130910511F407
S11301A0D99808958230910511F4DA98089583302E
S11301B0910511F4DB9808958430910511F4DC98CD
S11301C008958530910511F4DD98089586309105E0
S11301D011F4DE9808958730910511F4DF9808959D
S11301E08A30910511F4C09808958B30910511F46B
S11301F0C19808958C30910511F4C29808958D30FA
S1130200910511F4C39808958E30910511F4C498A2
S113021008958F30910511F4C598089580319105A2
S113022011F4C69808958131910511F4C798089581
S11302308431910511F4A89808958531910511F43C
S1130240A99808958631910511F4AA9808958731E3
S1130250910511F4AB9808958831910511F4AC9887
S113026008958931910511F4AD9808958A31910565
S113027011F4AE9808958B31910511F4AF98089557
S11302808E31910511F4909808958F31910511F4F0
S1130290919808958032910511F4929808958132CD
S11302A0910511F4939808958232910511F494986C
S11302B008958332910511F4959808958432910537
S11302C011F496980895859709F09FC0979808951A
S11302D0009711F4D89A08958130910511F4D99AB0
S11302E008958230910511F4DA9A089583309105C6
S11302F011F4DB9A08958430910511F4DC9A089581
S11303008530910511F4DD9A08958630910511F434
S1130310DE9A08958730910511F4DF9A08958A30A2
S1130320910511F4C09A08958B30910511F4C19A86
S113033008958C30910511F4C29A08958D30910579
S113034011F4C39A08958E30910511F4C49A089556
S11303508F30910511F4C59A08958031910511F4F7
S1130360C69A08958131910511F4C79A089584318C
S1130370910511F4A89A08958531910511F4A99A6B
S113038008958631910511F4AA9A0895873191054B
S113039011F4AB9A08958831910511F4AC9A08953B
S11303A08931910511F4AD9A08958A31910511F4BA
S11303B0AE9A08958B31910511F4AF9A08958E3158
S11303C0910511F4909A08958F31910511F4919A41
S11303D008958032910511F4929A0895813291051D
S11303E011F4939A08958232910511F4949A089520
S11303F08332910511F4959A08958432910511F48C
S1130400969A0895859709F4979A0895CF93C82FDB
S113041080FF07C061E070E082E290E00E94C600C5
S113042006C060E070E082E290E00E94C600C1FF76
S113043007C061E070E083E290E00E94C60006C05D
S113044060E070E083E290E00E94C600C2FF07C053
S113045061E070E084E290E00E94C60006C060E0C3
S113046070E084E290E00E94C600C3FF07C061E030
S113047070E085E290E00E94C60006C060E070E093
S113048085E290E00E94C600CF910895CF93C82FD3
S113049060E070E08AE190E00E94C6008C2F0E9428
S11304A0060261E070E08BE190E00E94C6008FE9F3
S11304B09FE00197F1F700C0000060E070E08BE17D
S11304C090E00E94C6008FE99FE00197F1F700C019
S11304D00000CF91089580E00E94460281E00E94CE
S11304E046020895CF93C62F813059F480E8860FD1
S11304F082958F700E9446028C2F8F700E94460254
S11305000CC0823051F480EC860F82958F700E946B
S113051046028C2F8F700E944602CF91089580E08E
S11305200E9406022FEF89EF90E021508040904016
S1130530E1F700C0000083E00E9446028FE19EE4E0
S11305400197F1F700C0000083E00E9446028FED9E
S11305509BEA0197F1F700C0000083E00E94460285
S113056082E00E94460282E00E94460288E00E94E5
S1130570460280E00E9446028CE00E94460280E02F
S11305800E94460286E00E9446020895CF93C82F37
S113059061E070E08AE190E00E94C6008C2F8295B1
S11305A08F700E94060261E070E08BE190E00E948F
S11305B0C6008FE99FE00197F1F700C0000060E0FA
S11305C070E08BE190E00E94C6008FE99FE0019704
S11305D0F1F700C000008C2F8F700E94060261E0CA
S11305E070E08BE190E00E94C6008FE99FE00197E4
S11305F0F1F700C0000060E070E08BE190E00E9441
S1130600C6008FE99FE00197F1F700C00000CF9189
S11306100895CF93DF93EC018881882331F02196EC
S11306200E94C60289918111FBCFDF91CF91089579
S1130630D19AD29AD998DA980895D998DA9A0895DD
S1130640D99ADA980895D998DA9808958091A300F0
S11306509091A20089137CC09091A100891378C065
S11306609091A000891709F473C00E9423038FE3BB
S11306709CE90197F1F700C000009091A3008091DC
S1130680A000981778F50E941D038091A00090E0C7
S11306902091A300821B91098130910551F49FEFB1
S11306A023EC89E0915020408040E1F700C0000035
S11306B049C08230910551F49FEF27E883E19150BE
S11306C020408040E1F700C000003CC00397D1F512
S11306D09FEF2BE48DE1915020408040E1F700C072
S11306E0000030C00E9420038091A00090E020917F
S11306F0A300821B91098F3F2FEF920751F48FEFD4
S113070093EC29E0815090402040E1F700C00000C4
S113071019C08E3F2FEF920751F48FEF97E823E132
S1130720815090402040E1F700C000000BC00396C8
S113073049F48FEF9BE42DE1815090402040E1F794
S113074000C000008091A3008093A0000E942303B6
S113075008958091A3009091A200891308C09091FC
S1130760A100891304C0833011F4D89A0895D8984D
S11307700895CF92DF92EF92FF92CF9320E030E082
S113078040E850E40E94ED046B017C0120E030E07D
S1130790A9010E94520588230CF43EC020E030E0F9
S11307A040E750E4C701B6010E94520518164CF008
S11307B020E030E0A901C701B6010E947006882339
S11307C06CF520E030E040E750E4C701B6010E9438
S11307D07006181654F420E030E040EF50E4C701EE
S11307E0B6010E9452051816DCF420E030E040EF18
S11307F050E4C701B6010E94700618169CF4C1E0CB
S113080020E030E044E351E4C701B6010E94520500
S113081018164CF4C0E007C0C3E005C0C3E003C031
S1130820C2E001C0C0E08C2FCF91FF90EF90DF9029
S1130830CF9008959091A2009093A3009091A1006D
S11308409093A2008093A10008951F920F920FB677
S11308500F9211248F939F9380919C0090919D00FF
S1130860019769F41EBC8CB59DB590939F0080934D
S11308709E001DBC1CBC10929D0010929C00809197
S11308809C0090919D00892B49F48EB581608EBDAA
S113089081E090E090939D0080939C009F918F91C4
S11308A00F900FBE0F901F901895CF93DF93CDB785
S11308B0DEB760970FB6F894DEBF0FBECDBF1092BF
S11308C0A0001092A1001092A2001092A3008BEF3E
S11308D081BB8FEF84BBD09AD8988BB780648BBFD1
S11308E085B7816085BF1FBC78940E948F020E94E7
S11308F06B0260E081E00E94720280E690E00E9458
S1130900090360E082E00E94720288E690E00E949F
S113091009030E941803909A20E52A95F1F790980C
S113092080919C0090919D00892BD1F360919E0051
S113093070919F0080E090E00E94BE0520E030E0CE
S11309404EE253E40E94740620E030E44CE156E4A5
S11309500E9456056B017C018E010F5F1F4F22E040
S113096046E00E94D7066AE082E00E947202C80153
S11309700E94090367E081E00E947202C701B60188
S11309800E94B903182F811105C083E790E00E94EB
S1130990090312C0813029F48DE790E00E94090315
S11309A00BC0823029F487E890E00E94090304C058
S11309B081E990E00E940903812F0E941A040E9499
S11309C0A9030E9426038FEF91EE24E0815090400A
S11309D02040E1F700C000009ECF5058BB27AA2753
S11309E00ED044C135D130F03AD120F031F49F3FDC
S11309F011F41EF42AC10EF4E095E7FB20C1E92F9F
S1130A0046D180F3BA17620773078407950718F075
S1130A1071F49EF55EC10EF4E0950B2EBA2FA02D55
S1130A200B01B90190010C01CA01A0011124FF2797
S1130A30591B99F0593F50F4503E68F11A16F04092
S1130A40A22F232F342F4427585FF3CF4695379591
S1130A502795A795F0405395C9F77EF41F16BA0B56
S1130A60620B730B840BBAF09150A1F0FF0FBB1F04
S1130A70661F771F881FC2F70EC0BA0F621F731F4D
S1130A80841F48F4879577956795B795F7959E3FAA
S1130A9008F0B3CF9395880F08F09927EE0F979538
S1130AA087950895A8D008F481E008950CD0DEC09D
S1130AB0D6D040F0CDD030F021F45F3F19F0BFC064
S1130AC0511108C1C2C0E3D098F39923C9F3552347
S1130AD0B1F3951B550BBB27AA276217730784072D
S1130AE038F09F5F5F4F220F331F441FAA1FA9F3E3
S1130AF033D00E2E3AF0E0E830D091505040E695D5
S1130B00001CCAF729D0FE2F27D0660F771F881F35
S1130B10BB1F261737074807AB07B0E809F0BB0B24
S1130B20802DBF01FF2793585F4F2AF09E3F510548
S1130B3068F085C0CFC05F3FECF3983EDCF3869548
S1130B4077956795B795F7959F5FC9F7880F911DBE
S1130B509695879597F90895E1E0660F771F881FAA
S1130B60BB1F621773078407BA0720F0621B730B5D
S1130B70840BBA0BEE1F88F7E0950895E89409C03A
S1130B8097FB3EF490958095709561957F4F8F4FBC
S1130B909F4F9923A9F0F92F96E9BB279395F695D2
S1130BA0879577956795B795F111F8CFFAF4BB0F50
S1130BB011F460FF1BC06F5F7F4F8F4F9F4F16C0B4
S1130BC0882311F096E911C0772321F09EE8872F3E
S1130BD0762F05C0662371F096E8862F70E060E0FA
S1130BE02AF09A95660F771F881FDAF7880F969573
S1130BF0879597F90895990F0008550FAA0BE0E817
S1130C00FEEF16161706E807F907C0F012161306CA
S1130C10E407F50798F0621B730B840B950B39F40A
S1130C200A2661F0232B242B252B21F408950A2670
S1130C3009F4A140A6958FEF811D811D089597F9B0
S1130C409F6780E870E060E008959FEF80EC08956E
S1130C5000240A9416161706180609060895002497
S1130C600A9412161306140605060895092E039411
S1130C70000C11F4882352F0BB0F40F4BF2B11F485
S1130C8060FF04C06F5F7F4F8F4F9F4F089557FDE4
S1130C909058440F551F59F05F3F71F04795880FE6
S1130CA097FB991F61F09F3F79F08795089512167D
S1130CB013061406551FF2CF4695F1DF08C0161629
S1130CC017061806991FF1CF8695710561050894DA
S1130CD00895E894BB2766277727CB0197F90895F1
S1130CE08ADF08F48FEF08950BD0C0CFB1DF28F06E
S1130CF0B6DF18F0952309F0A2CFA7CF1124EACFCD
S1130D00C6DFA0F3959FD1F3950F50E0551F629F66
S1130D10F001729FBB27F00DB11D639FAA27F00D50
S1130D20B11DAA1F649F6627B00DA11D661F829F77
S1130D302227B00DA11D621F739FB00DA11D621F5C
S1130D40839FA00D611D221F749F3327A00D611D79
S1130D50231F849F600D211D822F762F6A2F11245B
S1130D609F5750408AF0E1F088234AF0EE0FFF1FAE
S1130D70BB1F661F771F881F91505040A9F79E3FE5
S1130D80510570F05CCFA6CF5F3FECF3983EDCF3E7
S1130D90869577956795B795F795E7959F5FC1F722
S1130DA0FE2B880F911D9695879597F90895EF92DC
S1130DB00F931F93CF93DF93E80147FF02C034E101
S1130DC001C034E0E42FFF27E7FDF095F7FF03C0EF
S1130DD0F195E195F109E32E022F2E2FAE010E9429
S1130DE0F806CE01DF91CF911F910F91EF900895F6
S1130DF06F927F929F92AF92BF92CF92DF92EF92C7
S1130E00FF920F931F93CF93DF93CDB7DEB729974C
S1130E100FB6F894DEBF0FBECDBF6A01B22E102FFD
S1130E200C3320F4FF24F394F00E02C04CE3F42EB0
S1130E300F2D27E0AE014F5F5F4F0E947608798146
S1130E40272F2970213031F0E1FC06C0E0FC06C0F8
S1130E5060E005C06DE203C06BE201C060E2AE2D4C
S1130E60A07173FF36C0662311F084E001C083E0F3
S1130E708B1510F4B81A01C0B12CA1110BC0F601E6
S1130E808B2D90E2882319F091938150FBCFCB0CEA
S1130E90D11CB12C662331F0F601608396012F5FDB
S1130EA03F4F6901C6010396E2FE05C02EE4F60138
S1130EB0208331E404C02EE6F601208331E6318339
S1130EC02283FC012B2D30E22223F1F131932150B6
S1130ED0FBCF72FF40C0662311F084E001C083E0C1
S1130EE08B1510F4B81A01C0B12CA1110BC0F60176
S1130EF08B2D90E2882319F091938150FBCFCB0C7A
S1130F00D11CB12C662331F0F601608396012F5F6A
S1130F103F4F6901C6010396E2FE07C029E4F601CA
S1130F2020832EE4218326E406C029E6F6012083EB
S1130F302EE6218326E62283FC012B2D30E2222398
S1130F4019F031932150FBCFFC01EB0DF11D108200
S1130F508EEF9FEFB7C0B1E0611101C0B0E04B2F3D
S1130F6050E01816190624F49C012F5F3F4F02C06D
S1130F7021E030E0240F351F112329F0412F50E0E8
S1130F804F5F5F4F02C040E050E0420F531F2B2DD4
S1130F9030E04217530714F4B41A01C0B12C2E2DBB
S1130FA0287159F4F6012B2D30E2222319F03193E4
S1130FB02150FBCFCB0CD11CB12CBB2331F0F6015B
S1130FC0608396012F5F3F4F6901A1110BC0F601A9
S1130FD02B2D30E3222319F031932150FBCFCB0C7E
S1130FE0D11CB12CF80E0A81372F3071A32E74FF57
S1130FF003C0013309F4FA941F142CF42F2D293063
S113100018F028E001C021E0682F392F97FF02C0B3
S113101060E030E0462F532F612C712C3EE2932E7A
S1131020BC01621B71099B01DC01A41BB50BE1E04F
S1131030F0E0EC0FFD1FAE0FBF1FE12EF12CF19479
S1131040E194F1084F3FFFEF5F0731F4F60190821E
S1131050B6016F5F7F4F6B01841795074CF024171F
S1131060350734F4BD01660D771DFB01118101C004
S113107010E341505109FFEF6F1A7F0AB6016F5F09
S11310807F4F4E155F0524F0F60110836B01DACF14
S11310904817590739F4063320F4053319F4A1101D
S11310A001C011E3F6011083FB018B2D90E288232C
S11310B019F091938150FBCFFB01EB0DF11D1082D0
S11310C080E090E029960FB6F894DEBF0FBECDBF46
S11310D0DF91CF911F910F91FF90EF90DF90CF9010
S11310E0BF90AF909F907F906F900895283008F044
S11310F027E03327DA01990F311D87FD91600096AF
S11311006105710539F432602E5F3D9330E32A9511
S1131110E1F708959F3F30F080387105610509F0CB
S11311203C5F3C5F3D93913008F08068911DDF93F4
S1131130CF931F930F93FF92EF92192F987F969559
S1131140E92F96959695E90FFF27E255FF4F9927CA
S11311503327EE24FF24A701E701059008940794A0
S113116028F4360FE71EF81E491F511D660F771F1E
S1131170881F991F0694A1F70590079428F4E70E99
S1131180F81E491F561FC11D770F881F991F661F20
S11311900694A1F70590079428F4F80E491F561FEA
S11311A0C71FD11D880F991F661F771F0694A1F7CB
S11311B00590079420F4490F561FC71FD81F990F95
S11311C0661F771F881F0694A9F7849110951770DE
S11311D041F0D695C79557954795F794E7941A9596
S11311E0C1F7E4E5F0E068941590159135916591A7
S11311F0959105907FE27395E118F10A430B560B24
S1131200C90BD009C0F7E10CF11E431F561FC91FBB
S1131210D01D7EF4703311F48A95E6CFE894015022
S113122030F0080F0AF40027021708F4202F239542
S1131230022F7A3328F079E37D932A95E9F710C0D9
S11312407D932A9589F60694979567953795179512
S11312501794E118F10A430B560BC90BD00998F007
S113126023957E9173957A3308F070E37C93201371
S1131270B8F77E9170617D9330F0839571E37D932F
S113128070E32A95E1F71124EF90FF900F911F91DD
S1131290CF91DF91992787FD90950895F894FFCF1A
S11312A04C6576656C3A200044697374616E6365BD
S11312B03A20004C4F57202020202020004D454448
S11312C049554D202020004849474820202020200F
S10F12D000435249544943414C200000A3
S9030000FC
